{
  "contractName": "SchellingCoin",
  "abi": [
    {
      "constant": true,
      "inputs": [
        {
          "name": "",
          "type": "address"
        }
      ],
      "name": "accounts",
      "outputs": [
        {
          "name": "hash",
          "type": "string"
        },
        {
          "name": "deposit",
          "type": "uint256"
        }
      ],
      "payable": false,
      "stateMutability": "view",
      "type": "function"
    },
    {
      "inputs": [],
      "payable": false,
      "stateMutability": "nonpayable",
      "type": "constructor"
    },
    {
      "constant": false,
      "inputs": [],
      "name": "check_epoch",
      "outputs": [],
      "payable": false,
      "stateMutability": "nonpayable",
      "type": "function"
    },
    {
      "constant": false,
      "inputs": [
        {
          "name": "hash",
          "type": "string"
        }
      ],
      "name": "submit_hash",
      "outputs": [],
      "payable": false,
      "stateMutability": "nonpayable",
      "type": "function"
    },
    {
      "constant": false,
      "inputs": [],
      "name": "submit_value",
      "outputs": [],
      "payable": true,
      "stateMutability": "payable",
      "type": "function"
    },
    {
      "constant": false,
      "inputs": [],
      "name": "request_balance",
      "outputs": [
        {
          "name": "",
          "type": "uint256"
        }
      ],
      "payable": false,
      "stateMutability": "nonpayable",
      "type": "function"
    },
    {
      "constant": false,
      "inputs": [],
      "name": "request_output",
      "outputs": [
        {
          "name": "",
          "type": "uint256"
        }
      ],
      "payable": false,
      "stateMutability": "nonpayable",
      "type": "function"
    }
  ],
  "bytecode": "0x6060604052341561000f57600080fd5b60644381151561001b57fe5b0460008190555061042b806100316000396000f300606060405260043610610078576000357c0100000000000000000000000000000000000000000000000000000000900463ffffffff1680630435a6fd1461007d5780635e5c06e214610087578063b1c392851461015d578063b5493ee314610186578063d782d5da146101e3578063fc5da9911461020c575b600080fd5b610085610221565b005b341561009257600080fd5b6100be600480803573ffffffffffffffffffffffffffffffffffffffff16906020019091905050610223565b604051808060200183815260200182810382528481815460018160011615610100020316600290048152602001915080546001816001161561010002031660029004801561014d5780601f106101225761010080835404028352916020019161014d565b820191906000526020600020905b81548152906001019060200180831161013057829003601f168201915b5050935050505060405180910390f35b341561016857600080fd5b610170610246565b6040518082815260200191505060405180910390f35b341561019157600080fd5b6101e1600480803590602001908201803590602001908080601f01602080910402602001604051908101604052809392919081815260200183838082843782019150505050505091905050610250565b005b34156101ee57600080fd5b6101f66102f8565b6040518082815260200191505060405180910390f35b341561021757600080fd5b61021f610302565b005b565b600560205280600052604060002060009150905080600001908060010154905082565b6000600354905090565b603260644381151561025e57fe5b0610156102f5576001600260008282540192505081905550604080519081016040528082815260200134815250600560003373ffffffffffffffffffffffffffffffffffffffff1673ffffffffffffffffffffffffffffffffffffffff16815260200190815260200160002060008201518160000190805190602001906102e692919061035a565b50602082015181600101559050505b50565b6000600154905090565b60008060005460644381151561031457fe5b041115610356576002549150600090505b8181101561033a578080600101915050610325565b60644381151561034657fe5b0460008190555060006002819055505b5050565b828054600181600116156101000203166002900490600052602060002090601f016020900481019282601f1061039b57805160ff19168380011785556103c9565b828001600101855582156103c9579182015b828111156103c85782518255916020019190600101906103ad565b5b5090506103d691906103da565b5090565b6103fc91905b808211156103f85760008160009055506001016103e0565b5090565b905600a165627a7a72305820535d9e766a32acb5f9dea3094ea69b673b75b02c5eb9182585b38426674e3ca00029",
  "source": "pragma solidity ^0.4.19;\r\n\r\n/*\r\nthis is an implementation of the future-like contract described here by V in June 2014:\r\n    https://blog.ethereum.org/2014/06/30/advanced-contract-programming-example-schellingcoin/\r\n*/\r\ncontract SchellingCoin {\r\n    uint epoch;\r\n    uint balance;\r\n    uint hashes_submitted;\r\n    uint output;\r\n    string[] users;\r\n    mapping(address => Account) public accounts;\r\n    struct Account {\r\n        string hash;\r\n        uint deposit;\r\n    }\r\n\r\n    function SchellingCoin() public {\r\n        epoch = block.number / 100;\r\n    }\r\n\r\n    // todo: a lot\r\n    // can be called to trigger a payout check\r\n    function check_epoch() public {\r\n        if (block.number / 100 > epoch) {\r\n            // sort submitted values\r\n            uint num_hashes = hashes_submitted;\r\n            // calculate total deposit\r\n            // refund non-submitters\r\n\r\n            // reward correct guesses by taxing incorrect ones\r\n            for (uint i = 0; i < num_hashes; i++) {\r\n\r\n            }\r\n            // clean up\r\n            epoch = block.number / 100;\r\n            hashes_submitted = 0;\r\n        }\r\n    }\r\n\r\n    function submit_hash(string hash) public {\r\n        if (block.number % 100 < 50) {\r\n            hashes_submitted += 1;\r\n            accounts[msg.sender] = Account({\r\n                hash: hash,\r\n                deposit: msg.value\r\n            });\r\n        }\r\n    }\r\n\r\n    // send your guesses\r\n    function submit_value() public payable {\r\n\r\n    }\r\n\r\n    // checks the currently outstanding balance of the contract\r\n    function request_balance() public returns (uint) {\r\n        return balance;\r\n    }\r\n\r\n    function request_output() public returns (uint) {\r\n        return output;\r\n    }\r\n}",
  "sourcePath": "C:\\Users\\gener\\Dropbox\\DEVWORK\\goof\\solidity_demo\\contracts\\SchellingCoin.sol",
  "compiler": {
    "name": "solc",
    "version": "0.4.19+commit.c4cbbb05.Emscripten.clang"
  },
  "schemaVersion": "2.0.0",
  "updatedAt": "2018-03-05T07:06:10.245Z"
}