{
  "contractName": "SchellingCoin",
  "abi": [
    {
      "inputs": [],
      "payable": false,
      "stateMutability": "nonpayable",
      "type": "constructor"
    },
    {
      "anonymous": false,
      "inputs": [
        {
          "indexed": false,
          "name": "user",
          "type": "address"
        },
        {
          "indexed": false,
          "name": "hash",
          "type": "bytes32"
        }
      ],
      "name": "Commit",
      "type": "event"
    },
    {
      "anonymous": false,
      "inputs": [
        {
          "indexed": false,
          "name": "user",
          "type": "address"
        },
        {
          "indexed": false,
          "name": "value",
          "type": "uint256"
        }
      ],
      "name": "Reveal",
      "type": "event"
    },
    {
      "constant": false,
      "inputs": [],
      "name": "check_epoch",
      "outputs": [],
      "payable": false,
      "stateMutability": "nonpayable",
      "type": "function"
    },
    {
      "constant": false,
      "inputs": [
        {
          "name": "hash",
          "type": "bytes32"
        }
      ],
      "name": "submit_hash",
      "outputs": [],
      "payable": true,
      "stateMutability": "payable",
      "type": "function"
    },
    {
      "constant": true,
      "inputs": [
        {
          "name": "guess",
          "type": "uint256"
        },
        {
          "name": "nonce",
          "type": "uint256"
        }
      ],
      "name": "testHash",
      "outputs": [
        {
          "name": "",
          "type": "bytes32"
        }
      ],
      "payable": false,
      "stateMutability": "view",
      "type": "function"
    },
    {
      "constant": false,
      "inputs": [
        {
          "name": "guess",
          "type": "uint256"
        },
        {
          "name": "nonce",
          "type": "uint256"
        }
      ],
      "name": "submit_value",
      "outputs": [],
      "payable": false,
      "stateMutability": "nonpayable",
      "type": "function"
    },
    {
      "constant": true,
      "inputs": [
        {
          "name": "user",
          "type": "address"
        }
      ],
      "name": "getGuess",
      "outputs": [
        {
          "name": "",
          "type": "uint256"
        }
      ],
      "payable": false,
      "stateMutability": "view",
      "type": "function"
    },
    {
      "constant": true,
      "inputs": [],
      "name": "request_balance",
      "outputs": [
        {
          "name": "",
          "type": "uint256"
        }
      ],
      "payable": false,
      "stateMutability": "view",
      "type": "function"
    },
    {
      "constant": true,
      "inputs": [],
      "name": "request_output",
      "outputs": [
        {
          "name": "",
          "type": "uint256"
        }
      ],
      "payable": false,
      "stateMutability": "view",
      "type": "function"
    }
  ],
  "bytecode": "0x6060604052341561000f57600080fd5b60044381151561001b57fe5b04600081905550610e63806100316000396000f300606060405260043610610083576000357c0100000000000000000000000000000000000000000000000000000000900463ffffffff1680633d7350a214610088578063a4208b70146100a4578063b1c39285146100f1578063d782d5da1461011a578063f16f435414610143578063f2fad4e81461016f578063fc5da991146101b7575b600080fd5b6100a26004808035600019169060200190919050506101cc565b005b34156100af57600080fd5b6100db600480803573ffffffffffffffffffffffffffffffffffffffff16906020019091905050610434565b6040518082815260200191505060405180910390f35b34156100fc57600080fd5b610104610483565b6040518082815260200191505060405180910390f35b341561012557600080fd5b61012d61048d565b6040518082815260200191505060405180910390f35b341561014e57600080fd5b61016d6004808035906020019091908035906020019091905050610497565b005b341561017a57600080fd5b610199600480803590602001909190803590602001909190505061059b565b60405180826000191660001916815260200191505060405180910390f35b34156101c257600080fd5b6101ca610606565b005b6101d4610daf565b60026004438115156101e257fe5b0610156104305760008160000190151590811515815250506000816020018181525050818160400190600019169081600019168152505060008160600190151590811515815250503481608001818152505080600360000160003373ffffffffffffffffffffffffffffffffffffffff1673ffffffffffffffffffffffffffffffffffffffff16815260200190815260200160002060008201518160000160006101000a81548160ff021916908315150217905550602082015181600101556040820151816002019060001916905560608201518160030160006101000a81548160ff021916908315150217905550608082015181600401559050507f0b6cc2ecff3b94112d44f2dbac8aee8eb02772c07b1e52605f0dc6d726bf0e313383604051808373ffffffffffffffffffffffffffffffffffffffff1673ffffffffffffffffffffffffffffffffffffffff16815260200182600019166000191681526020019250505060405180910390a1600060036001018054905014156103c957600360010180548060010182816103799190610de6565b9160005260206000209001600080909190916101000a81548173ffffffffffffffffffffffffffffffffffffffff021916908373ffffffffffffffffffffffffffffffffffffffff160217905550505b600360010180548060010182816103e09190610de6565b9160005260206000209001600033909190916101000a81548173ffffffffffffffffffffffffffffffffffffffff021916908373ffffffffffffffffffffffffffffffffffffffff160217905550505b5050565b6000600360000160008373ffffffffffffffffffffffffffffffffffffffff1673ffffffffffffffffffffffffffffffffffffffff168152602001908152602001600020600101549050919050565b6000600254905090565b6000600154905090565b600360000160003373ffffffffffffffffffffffffffffffffffffffff1673ffffffffffffffffffffffffffffffffffffffff1681526020019081526020016000206002015460001916338383604051808473ffffffffffffffffffffffffffffffffffffffff1673ffffffffffffffffffffffffffffffffffffffff166c01000000000000000000000000028152601401838152602001828152602001935050505060405180910390206000191614156105975781600360000160003373ffffffffffffffffffffffffffffffffffffffff1673ffffffffffffffffffffffffffffffffffffffff168152602001908152602001600020600101819055505b5050565b6000338383604051808473ffffffffffffffffffffffffffffffffffffffff1673ffffffffffffffffffffffffffffffffffffffff166c0100000000000000000000000002815260140183815260200182815260200193505050506040518091039020905092915050565b60008060008060005460044381151561061b57fe5b0411156109805761063a60036001016001600360010180549050610986565b600360000160006003600101606460196003600101805490500281151561065d57fe5b0481548110151561066a57fe5b906000526020600020900160009054906101000a900473ffffffffffffffffffffffffffffffffffffffff1673ffffffffffffffffffffffffffffffffffffffff1673ffffffffffffffffffffffffffffffffffffffff1681526020019081526020016000206001015493506003600001600060036001016064604b600360010180549050028115156106f957fe5b0481548110151561070657fe5b906000526020600020900160009054906101000a900473ffffffffffffffffffffffffffffffffffffffff1673ffffffffffffffffffffffffffffffffffffffff1673ffffffffffffffffffffffffffffffffffffffff168152602001908152602001600020600101549250600191505b6003600101805490508211151561096c57600360000160006003600101848154811015156107a157fe5b906000526020600020900160009054906101000a900473ffffffffffffffffffffffffffffffffffffffff1673ffffffffffffffffffffffffffffffffffffffff1673ffffffffffffffffffffffffffffffffffffffff168152602001908152602001600020600101549050600081141561081b5761095f565b83811015801561082b5750828111155b1561095d5760016003600001600060036001018581548110151561084b57fe5b906000526020600020900160009054906101000a900473ffffffffffffffffffffffffffffffffffffffff1673ffffffffffffffffffffffffffffffffffffffff1673ffffffffffffffffffffffffffffffffffffffff16815260200190815260200160002060030160006101000a81548160ff021916908315150217905550600360000160006003600101848154811015156108e457fe5b906000526020600020900160009054906101000a900473ffffffffffffffffffffffffffffffffffffffff1673ffffffffffffffffffffffffffffffffffffffff1673ffffffffffffffffffffffffffffffffffffffff168152602001908152602001600020600401546001540160018190555061095e565b5b5b8180600101925050610777565b60044381151561097857fe5b046000819055505b50505050565b6000806000849250839150600360000160008760028888038115156109a757fe5b0488018154811015156109b657fe5b906000526020600020900160009054906101000a900473ffffffffffffffffffffffffffffffffffffffff1673ffffffffffffffffffffffffffffffffffffffff1673ffffffffffffffffffffffffffffffffffffffff1681526020019081526020016000206001015490505b8183111515610d7f575b80600360000160008886815481101515610a4357fe5b906000526020600020900160009054906101000a900473ffffffffffffffffffffffffffffffffffffffff1673ffffffffffffffffffffffffffffffffffffffff1673ffffffffffffffffffffffffffffffffffffffff168152602001908152602001600020600101541015610ac0578280600101935050610a2d565b5b600360000160008784815481101515610ad657fe5b906000526020600020900160009054906101000a900473ffffffffffffffffffffffffffffffffffffffff1673ffffffffffffffffffffffffffffffffffffffff1673ffffffffffffffffffffffffffffffffffffffff16815260200190815260200160002060010154811015610b5557818060019003925050610ac1565b8183111515610d7a57600360000160008784815481101515610b7357fe5b906000526020600020900160009054906101000a900473ffffffffffffffffffffffffffffffffffffffff1673ffffffffffffffffffffffffffffffffffffffff1673ffffffffffffffffffffffffffffffffffffffff16815260200190815260200160002060010154600360000160008886815481101515610bf257fe5b906000526020600020900160009054906101000a900473ffffffffffffffffffffffffffffffffffffffff1673ffffffffffffffffffffffffffffffffffffffff1673ffffffffffffffffffffffffffffffffffffffff16815260200190815260200160002060010154600360000160008987815481101515610c7157fe5b906000526020600020900160009054906101000a900473ffffffffffffffffffffffffffffffffffffffff1673ffffffffffffffffffffffffffffffffffffffff1673ffffffffffffffffffffffffffffffffffffffff1681526020019081526020016000206001016000600360000160008b88815481101515610cf157fe5b906000526020600020900160009054906101000a900473ffffffffffffffffffffffffffffffffffffffff1673ffffffffffffffffffffffffffffffffffffffff1673ffffffffffffffffffffffffffffffffffffffff168152602001908152602001600020600101600084919050558391905055505082806001019350508180600190039250505b610a23565b81851015610d9357610d92868684610986565b5b83831015610da757610da6868486610986565b5b505050505050565b60a0604051908101604052806000151581526020016000815260200160008019168152602001600015158152602001600081525090565b815481835581811511610e0d57818360005260206000209182019101610e0c9190610e12565b5b505050565b610e3491905b80821115610e30576000816000905550600101610e18565b5090565b905600a165627a7a723058209e8104b3050698509aec547b76da86e2d2f0cfa8d49e4e8b11ff63ac2fb7e5b20029",
  "source": "pragma solidity ^0.4.18;\r\n\r\n//this is an implementation of the future-like contract described here by V in June 2014:\r\n//    https://blog.ethereum.org/2014/06/30/advanced-contract-programming-example-schellingcoin/\r\ncontract SchellingCoin {\r\n    event Commit(address user, bytes32 hash);\r\n    event Reveal(address user, uint value);\r\n    uint epoch;\r\n    uint balance;\r\n    uint output;\r\n    Accounts users;\r\n\r\n    struct Accounts {\r\n        mapping(address => Account) accounts;\r\n        address[] addresses;\r\n        uint size;\r\n    }\r\n\r\n    struct Account {\r\n        bool deleted;\r\n        uint guess;\r\n        bytes32 hash; // keccak256(sender's address, price estimate)\r\n        bool in_the_money;\r\n        uint value; // amount staked\r\n    }\r\n\r\n    function SchellingCoin() public {\r\n        epoch = block.number / 4;\r\n    }\r\n\r\n    // can be called to trigger a payout check\r\n    function check_epoch() public {\r\n        if (block.number / 4 > epoch) {\r\n            // reorder\r\n            quickSort(users.addresses, 1, users.addresses.length);\r\n            // low/high guesses\r\n            uint low_cutoff = users.accounts[users.addresses[users.addresses.length * 25 / 100]].guess;\r\n            uint high_cutoff = users.accounts[users.addresses[users.addresses.length * 75 / 100]].guess;\r\n            // calculate total stake\r\n            // refund non-submitters\r\n            for (uint i = 1; i <= users.addresses.length; i++) {\r\n                uint guess = users.accounts[users.addresses[i]].guess;\r\n                if (guess == 0) {\r\n                    // refund these users\r\n                } else if (guess >= low_cutoff && guess <= high_cutoff) {\r\n                    users.accounts[users.addresses[i]].in_the_money = true;\r\n                    balance = balance + users.accounts[users.addresses[i]].value;\r\n                } else {\r\n                    // users.addresses[i].transfer(users.addresses[i].value * 999 / 1000);\r\n                }\r\n            }\r\n\r\n            epoch = block.number / 4;\r\n        }\r\n    }\r\n    // submit your commitment\r\n    function submit_hash(bytes32 hash) public payable {\r\n        if (block.number % 4 < 2) {\r\n            Account memory a; \r\n            a.deleted = false;\r\n            a.guess = 0; //I'm just using 0 as a filler until we get the real thing\r\n            a.hash = hash;\r\n            a.in_the_money = false;\r\n            a.value = msg.value;\r\n            users.accounts[msg.sender] = a;\r\n            Commit(msg.sender, hash);\r\n            if (users.addresses.length == 0) {\r\n                users.addresses.push(0);\r\n            }\r\n            users.addresses.push(msg.sender);\r\n        }\r\n    }\r\n\r\n    function testHash(uint guess, uint nonce) public view returns (bytes32) {\r\n        return keccak256(msg.sender, guess, nonce);\r\n    }\r\n\r\n    function submit_value(uint guess, uint nonce) public {\r\n        if (keccak256(msg.sender, guess, nonce) == users.accounts[msg.sender].hash) {\r\n            users.accounts[msg.sender].guess = guess;\r\n        }\r\n    }\r\n\r\n    function getGuess(address user) public view returns (uint) {\r\n      return users.accounts[user].guess;\r\n    }\r\n\r\n    // checks the currently outstanding balance of the contract\r\n    function request_balance() public view returns (uint) {\r\n        return balance;\r\n    }\r\n\r\n    function request_output() public view returns (uint) {\r\n        return output;\r\n    }\r\n\r\n    function quickSort(address[] storage addresses, uint left, uint right) internal {\r\n        uint i = left;\r\n        uint j = right;\r\n        uint pivot = users.accounts[addresses[left + (right - left) / 2]].guess;\r\n        while (i <= j) {\r\n            while (users.accounts[addresses[i]].guess < pivot) i++;\r\n            while (pivot < users.accounts[addresses[j]].guess) j--;\r\n            if (i <= j) {\r\n                (\r\n                users.accounts[addresses[i]].guess,\r\n                users.accounts[addresses[j]].guess\r\n                ) = (\r\n                users.accounts[addresses[j]].guess,\r\n                users.accounts[addresses[i]].guess\r\n                );\r\n                i++;\r\n                j--;\r\n            }\r\n        }\r\n        if (left < j)\r\n            quickSort(addresses, left, j);\r\n        if (i < right)\r\n            quickSort(addresses, i, right);\r\n    }\r\n}",
  "sourcePath": "C:\\Users\\gener\\Dropbox\\DEVWORK\\goof\\solidity_demo\\contracts\\SchellingCoin.sol",
  "compiler": {
    "name": "solc",
    "version": "0.4.19+commit.c4cbbb05.Emscripten.clang"
  },
  "schemaVersion": "2.0.0",
  "updatedAt": "2018-03-09T16:24:21.318Z"
}